:020000040000FA
:20000000904600208307000051080000E9020000000000000000000000000000000000001C
:20002000000000000000000000000000F9020000000000000000000009030000190300009D
:20004000810700008107000081070000810700008107000081070000810700008107000060
:200060008107000065110000791100008D110000A11100000000000000000000D50B0000C8
:20008000ED0B0000050C000081070000810700008107000000000000000000008107000037
:2000A00081070000810700008107000081070000DA140000DC140000E8140000921500009F
:2000C000B2150000D6150000F8B5C046F8BC08BC9E467047D11D000061010000F8B5C046A5
:2000E000F8BC08BC9E467047350100000448054B10B5834203D0044B002B00D0984710BDC8
:2001000000200000002000000000000006480749091A8B10C90FC91810B5491003D0044B4A
:20012000002B00D0984710BD00200000002000000000000010B5074C2378002B09D1FFF72A
:20014000D5FF054B002B02D0044800E000BF0123237010BD2C00002000000000B000000013
:20016000054B10B5002B03D00449054800E000BFFFF7CCFF10BDC04600000000300000204F
:20018000B0000000BFF34F8F034B044ADA60BFF34F8FC046FDE7C04600ED00E00400FA05F9
:2001A00010B50A4B0020002118605960084B5B685A6872B6BFF35F8F196881F30888FF216E
:2001C0008B4304498B609047FEE7C0460000002000FF030000ED00E010B500F0B3F80028E0
:2001E00006D00C4B59689A68914210D001D9002010BD521A0120404200F0A4FD064B18602C
:20020000044BDB68C01A43425841C0B2F0E70020EEE7C04600FF03004800002010B5034B93
:200220000020002118605960FFF7ACFF00000020FEE710B5012000F029FD224C0023237185
:200240000120214A0021404200F07CFDA0601F4B1B68984209D100F067F800F073F8002893
:2002600008D1184B02221A7110BD164B01221A71FFF7DEFF00F066F8002808D0144B1A68B5
:200280005968144B9A4213D1134B994210D100F059F80028E8D00E4B1A6859680D4B9A4273
:2002A000E2D10D4B9942DFD1064B04221A71DBE7FFF792FF002803D1024B03221A71D3E7AA
:2002C000FFF76EFF48000020FC1F0000FC1F0000000000207697458300006969014B187979
:2002E0007047C04648000020EFF30582014BDA60FAE7C04648000020EFF30582014BDA60AC
:20030000FAE7C04648000020EFF30582014BDA60FAE7C04648000020EFF30582014BDA6061
:20032000FAE7C0464800002010B50120FC220349404200F007FD024B186010BD00FF030014
:2003400058000020074B1B78012B01D000207047054B1A68054B1B689A4201D00020F6E71D
:200360000120F4E700FF030058000020FCFF03000B4B032018709622D2015A6000221A7215
:200380005A72182199721739D972013119735A7319329A73D8731974E6325A749A7470474C
:2003A0005C00002002280AD005D8002809D0012809D114307047032807D11430FAE7162083
:2003C000F8E71420F6E7FF20F4E7FF20F2E702280AD005D8002809D0012809D10730704768
:2003E000032807D11D30FAE71020F8E70420F6E70020F4E70020F2E7F0B5D6464F464646E6
:20040000C0B5FFF79FFF00285FD0314B1B7F032B19D82F4AD27F002A15D12D492320095C4F
:20042000002910D12A482024005D1F280BD8284C2425645D1F2C06D8254D2226AE5DB51E36
:20044000EDB2012D06D9FFF793FFE0BCBA46B146A846F0BD1E4D2627ED5DAA46023DEDB26A
:20046000012DF0D81A4D053FED5DAC46012DEAD8174D0437ED5DA846032DE4D8144D6D7F9F
:20048000A946002DDFD0182DDDD8124D2B7096235B014F467B436B600D4B9F7F2F726A7277
:2004A000A8726246EA722E736973AC734246EA7352462A742922995C0029C6D101329A5C3E
:2004C0001F2AC2D86974AA74BFE7FFF751FFBCE700FF03005C00002030B587B0FFF78CFF94
:2004E000234C227BA17A607A00F014FA227CA17B607B00F00FFA607C002803D11C4B997C1B
:200500001F2927D91A4C2078FFF74CFF032100F0F5FB25782800FFF75AFF164A136A034319
:200520001362E37A6268144902910C310191E17B00911249280000F019FD207800F064FD01
:20054000207A00F06AFF01F066F8012001F028FA07B030BD00236A461375537505AA00F0BF
:20056000C5F9034B997C587C012200F03DFAC9E75C000020000400400800002000127A0018
:2005800010B5002000F09EFD10BD10B5012000F099FD10BD10B5022000F094FD10BD10B5EB
:2005A000032000F08FFD10BD10B50A4B187800F061FD040007E0074B187800F06FFD00F0BE
:2005C0007AFF013CE4B2002CF5D1012000F043FF10BDC0465C000020F0B585B00D006B46A3
:2005E000D8719E1D9A710F276F4445233B70114C207801226B46D91D00F013FD2078012276
:20060000290000F00EFD20780122390000F009FD6B46DA79013AD2B2691C207800F001FDFE
:2006200020780122310000F0FCFC207800F012FD05B0F0BD5C0000207047C04610B5FFF7F9
:200640004DFE031E04D0013BDBB2022B01D9402010BD4120FCE710B500F09AFB10BD0148B9
:200660007047C0462000002070B504000D001600402903D01A4B03221A7070BD830603D157
:2006800080239B01984203D2154B03221A70F4E7FF23034212D100F0C1FA00F0CDFA2300B3
:2006A00002E01A1BB25804C32A199A42F9D8200000F0CEFA0A4B00221A70DEE700F0BCFA1E
:2006C000230002E01A1BB25804C32A199A42F9D8200000F0BDFA024B00221A70CDE7C046A5
:2006E00024000020014B18787047C0462400002010B5FFF793FD10BD10B5FFF79AFD00204F
:2007000000F0B4FA00F058FB00F00CFB00F06AFB01220621032000F0D3FA0822062104200D
:2007200000F0CEFAFFF7D8FE00F030FE04211A2000F0E4FA094A116A80235B000B4313625B
:20074000002000F022FAFA218900002000F0C0F9002000F00FFA00F09BFB10BD0004004050
:2007600010B500F01BFE10BD10B5FFF7C5FF00F01CFE10B500F0EEFDFFF716FF10BD704726
:20078000FEE710B5124B134A934207D0114B104A01E002CA02C310498B42FAD30F4B01E0F3
:2007A000002204C30E4A9342FAD30E4BFF2293430D4A93600D4B002B00D0984701F0E0FABF
:2007C0000B4B002B00D09847FFF7CEFFFEE7C046C81E0000080000202C0000202C00002095
:2007E000900600200000000000ED00E000000000000000000D4A137801210B43DBB2137014
:200800000A4B5B785BB2002BFADB084A302353608823DB039361137802210B43DBB21370C2
:20082000024B5B785BB2002BFADB70470018004001238340014AD3607047C0460018004002
:2008400001238340014A93607047C04600180040014B0122DA7070470018004030B501238D
:200860008B401278002A0DD11400012A0CD0022A10D0C0010A4A94466044411840310C701B
:20088000436030BD0424F0E7C201054DAC4662449361EEE7C201024DAC4662445361E8E726
:2008A0000044004130B501238B401278002A0DD10224012A0CD0022A10D0C0010A4A944625
:2008C0006044411840310C70436030BD0624F0E7C201054DAC4662449361EEE7C201024D15
:2008E000AC4662445361E8E70044004110B501238B401278002A09D00222C001044CA446F8
:200900006044411840310A70836010BD0022F4E70044004130B5CB0718D44C08C301134DA2
:20092000AC4663441B1930331C780F25AC432A4022431A70C0010D4B9C4660444018403010
:20094000037801221343DBB2037030BD4C08C301064DAC4663441B1930331C7815010F2240
:2009600022402A43D2B21A70E4E7C04600440041C001054B9C466044401840300378012247
:20098000934303707047C04600440041C001024B9C466044006A704700440041C001054B81
:2009A0009C466044026A012088401040431E9841C0B2704700440041C001024B9C46604490
:2009C0000161704700440041C001024B9C4660448161704700440041C001024B9C46604433
:2009E000416170470044004110B5002A02D0012A06D010BD01238B401900FFF7EDFFF8E7C1
:200A000001238B401900FFF7DFFFF2E7C001024B9C466044C16170470044004110B5012346
:200A20008B401900FFF7F2FF10BDC04670B5002811DB8308134DC0339B005C59032210403C
:200A4000C000FC3216008640B44389010A40824022435A5170BD0F230340083B9B0806336E
:200A60009B00094A944663445C6803221040C000FC3215008540AC4389010A40824022431C
:200A80005A60E7E700E100E000ED00E0012807D0022807D0002801D0002070470248FCE742
:200AA0000248FAE70248F8E7002000420024004200280042012807D0022807D0002801D0B6
:200AC0001C2070470F30FCE71020FAE71120F8E770B504000D00FFF7D9FF00230360013322
:200AE0008362094BC36205642000FFF7E3FF04000A21FFF79BFF002C05DB1F2222400123A5
:200B00009340024A136070BD0FF80F0000E100E0F8B50F001600FFF7B9FF80235B0103605D
:200B200000234361002501E00133DBB2032B09D8DC0034192279002AF6D001229A4015430F
:200B4000EDB2F1E72D04FF231B041D4085613F023F0A07640223C36333681B021B0A4364A5
:200B6000B3681B021B0A8364014BC362F8BDC0460FF80F0010B5FFF789FF036802221343C7
:200B8000036083689B07FCD410BD10B5FFF77EFF03680122134303608368DB07FCD410BDDF
:200BA00010B50C00FFF772FFC46683685B03FCD410BD70B50C001500FFF768FF2D022D0AE4
:200BC0001C34A40025508268F023DB031A42FAD170BD704710B5FFF7C3FD024B024ADA6276
:200BE00010BDC046002000420FF80F0010B5FFF7F0FF024B024ADA6210BDC04600240042F2
:200C00000FF80F0010B5FFF7E4FF024B024ADA6210BDC046002800420FF80F004008044B61
:200C2000D861044A1A80024B1B7DDB07FBD570470040004102A5FFFF034B044A1A80024B9C
:200C40001B7DDB07FBD570470040004144A5FFFF4008044BD861044A1A80024B1B7DDB07AC
:200C6000FBD570470040004104A5FFFF002805D0054A536880218B4353607047024A5368DE
:200C800080210B435360F8E700400041024A536801210B435360704700400041044B9A689F
:200CA000120C0723134003330120984080B2704700400041014B986880B27047004000414A
:200CC0000902F8235B0119400F231840014380235B020B4308494B60074B5B785BB2002BC4
:200CE000FADB12021043044B9860034B5B785BB2002BFADB7047C046000C00403F23034095
:200D00000902F022120111400B438022D2011343034A5380024B5B785BB2002BFADB704735
:200D2000000C0040064B01221A70054B1B78DB0704D5034B5B785BB2002BF6DB7047C046E4
:200D4000000C004010B58223DB0502241C60890889000E4B5960920892009A60D8605A78FF
:200D600001210A43D2B25A701A7804210A43D2B21A70064B5B78DB07FBD5044BD868C0433C
:200D80008223DB0502225A6010BDC04600200041054B1868054B1B685840054B1B68584016
:200DA000044B1B68584070470CA0800040A0800044A0800048A08000074B5B689B091B04E2
:200DC000FE22D2031340054A1343054A9361044BDB685B07FBD5704720608000060600005C
:200DE00000080040054A136A05490B4002210B431362024BDB681B07FBD5704700080040DF
:200E00000000FFCF10B502001C4B022098841B4BDB68DB06FBD550084018110000F03AFE55
:200E20000004000C16490143144BD962134BDB68DB06FBD5134B1B689B0E3F2B1BD0124AD8
:200E400012889205920D9B0213430C4A9362D16200239384094BDB68DB06FBD5074A0B4B28
:200E60009384938C02210B439BB29384034BDB685B06FBD510BD203BE1E7C0460008004067
:200E80000000FF7D246080002860800004050000BFF35F8F62B6704770B5002811DB83088E
:200EA000134DC0339B005C5903221040C000FC3216008640B44389010A40824022435A51B3
:200EC00070BD0F230340083B9B0806339B00094A944663445C6803221040C000FC321500A6
:200EE0008540AC4389010A40824022435A60E7E700E100E000ED00E010B5040000F0FEF87E
:200F0000037E9B0601D520230376037E5B0700D410BD018DC9B2034BA400E05800F09BF9E2
:200F2000F6E7C0467001002070B5040000F0E6F805000D4BA2009B18186900F065F900289D
:200F400007D0094BA4001B19186900F0BFF9288570BD200000F0D2F801230375024B202286
:200F600000219954F4E7C04670010020F8B5CE46474680B504000F009046994608AB1E785D
:200F800000F0BCF805001C4BA2009918099808610A99D1503305C022920313404A46120478
:200FA000C026B60232401343144A13432B60F8004346D90000F06EFD420311490A40C30823
:200FC000DB04DB0C13439BB2AB816E60200000F0B3F8002805DB1F22024001239340094A1E
:200FE0001360200000F0A8F80221FFF755FFC0BCB946B046F8BDC0467001002004610040FF
:2010000000E0FF1F00E100E010B500F077F80368022213430360C3699B07FCD424238375C8
:2010200010BDF8B506000F001500094B20229B5C002BFAD1002408E0395D054BB2009B1832
:20104000186900F008F90134E4B2AC42F4D3F8BD7001002070B50400054B012520229D5486
:2010600000F04CF885752000FFF75EFF70BDC0467001002070B5050000F040F80426067514
:20108000054BAA00D05800F0BFF80400280000F035F88675E0B270BD7001002070B50400CA
:2010A00000F02CF804260675054BA200D05800F00DF90500200000F021F88675280070BDE9
:2010C0007001002070B5050000F018F80400837DDB0702D5037EDB0707D4A27D24231A4298
:2010E00002D0227E1A4204D170BD2800FFF71CFFF3E72800FFF700FFF6E7C04602280AD009
:2011000005D8002809D0012809D107487047032807D10648FAE70648F8E70648F6E700203E
:20112000F4E70020F2E7C046000C004200140042001000420008004202280AD005D800288C
:2011400009D0012809D109307047032807D10930FAE70B20F8E70920F6E71C20F4E71C2043
:20116000F2E7704710B5FFF70BFA024BBF221A7610BDC0460008004210B5FFF706FA024B3C
:20118000BF221A7610BDC046000C004210B5FFF701FA024BBF221A7610BDC0460010004224
:2011A00010B5FFF7FCF9024BBF221A7610BDC0460014004210B5013000F0DCFD88B210BDD2
:2011C00010B504000189C088FFF7F4FFA388C01A43425841C0B210BD10B504000189C0888E
:2011E000FFF7E8FFA388C01A43425841C0B210BD10B504000189C088FFF7DCFFA388C01A3F
:2012000043425841C0B210BDC3888288934202D3981A80B270470089181880B2801A80B220
:20122000F8E7C3888288934202D3981A80B270470089181880B2801A80B2F8E7C38882884A
:20124000934202D3981A80B270470089181880B2801A80B2F8E770B504000D00FFF7B0FFD8
:20126000002801D0002070BD2268E388D5542189E088FFF79FFFE0800120F4E770B50400DF
:201280000D00FFF7A9FF002801D0002070BD2268E3885B00D5522189E088FFF78BFFE080F4
:2012A0000120F3E770B504000D00FFF7A1FF002801D0002070BD2268E3889B00D5502189C2
:2012C000E088FFF777FFE0800120F3E770B504008088E388984207D023681D5C2189FFF7EE
:2012E00069FFA080280070BD0025FBE770B504008088E388984208D022684300D55A218916
:20130000FFF758FFA080280070BD0025FBE770B504008088E388984208D022688300D5587C
:201320002189FFF747FFA080280070BD0025FBE7064B1B781F2B06D804485A1C02700430D7
:201340005B00C01870470020FCE7C0469401002001807047002301E00133DBB21F2B0BD8BB
:20136000064A590052189288002AF5D0034958000918013A8A80EFE77047C04694010020FF
:20138000008843425841C0B27047C046024B00221A705A707047C046D8010020014B012290
:2013A0001A707047D8010020704710B50C4B1B78002B0AD10A4B5B78DBB2092BF6D9FFF7D9
:2013C000DEF9074B00225A70F0E7FFF7D2F9044B00221A705A780132D2B25A70EAE7C0463B
:2013E000D801002030B50300002103E001221A4051405B08002BF9D104000022002504E073
:20140000012323405D40A4080132052AF8DD49000D43AD03284380B230BD034B00221A70F8
:201420005A609A6018737047DC01002010B5084B1B78002B00D010BDFFF7D4FFFFF7FCF893
:20144000034B1B7B002BF6D1014B03221A70F2E7DC010020704710B5154B5A6880185860F7
:201460001A78531EDBB2012B0DD9032A05D0104B5B7C042B01D0052A04D10D4B9B68C01A5D
:2014800005280DD810BD0A4B9B68C01A0528F9D9074B00221A70D989187CFFF7DBFFF1E7A0
:2014A000034B00221A70D989187CFFF7D3FFE9E7DC010020704770B5524B5A689A601B78DF
:2014C000002B01D1552805D0052B06D89B004E4AD3589F464B4B01221A7070BD0002494B66
:2014E000D88102221A70F8E7464BDC890443DC81A504AD0C2800FFF775FF844208D0414B4E
:2015000000221A70013221000020FFF7A3FFE4E73C4CE581280000F02FFA2074002803D189
:20152000384B03221A70D8E7384A364B19001231D88900F025FA002827D0324B987C020039
:201540005D3AD2B2002304E03049C95C8A18D2B201339842F8DC2B4B1B7B002B03D1294B44
:201560001B7C002B0AD1274B1B7C002BB5D0254B032119702549FFF72FF8AEE7214B00214B
:2015800019702249FFF728F8A7E71E4B03221A70A3E71C4B58740022DA7402005D3A1A7546
:2015A000002802D105221A7097E7164B04221A7093E7144AD37C1649C854117D41181175E1
:2015C0000133DBB2D374527C934200D285E70D4B05221A7081E70B4B1B7D834208D0094BD2
:2015E00000221A70D989187C0232FFF733FF74E7044800230370064B427CC189007C00F0EB
:20160000C3F96AE7DC010020B0000000F4010020F4020020704710B500F04CF8FFF7FAFF46
:2016200010BD0020704710B50400FFF7FAFF002801D0012010BD200000F06AF80028F9D004
:201640000120F7E70020704770B504000D00160000F05EF8002805D12000FFF7E2FF002805
:2016600006D170BD32002900200000F0BBF8F8E7320029002000FFF7E5FFF2E70020704764
:20168000704770B504000D00160000F079F8002805D032002900200000F018F970BD200020
:2016A000FFF7ECFF0028F9D0320029002000FFF7E7FFF3E7024B00221A705A709A707047A3
:2016C000F4030020014B18707047C046F403002030B5054C6278054BD50058535B1959603E
:2016E0000132627030BDC046F40300207804002030B5054CA278054BD50058535B195960F2
:201700000132A27030BDC046F4030020F803002010B5194B1C78002C22D080239B002343E0
:2017200098421FD084239B00234398421CD088239B002343984219D08C239B002343984279
:2017400016D000230C4A92789A4207DD0B4AD9008A5A224390420DD00133F3E7002000E02C
:20176000002010BD0120FCE70120FAE70120F8E70120F6E70120F4E7F4030020F80300204A
:2017800000281BD0831EFF3B9BB2FD2B18D90F4BC3189BB20E4A934214D900230D4A527815
:2017A0009A4209DD0C4AD900895A0A4A12780A43904209D00133F1E7002000E0012070479B
:2017C0000120FCE70120FAE70120F8E7FFFDFFFFFD0D0000F4030020780400200020704775
:2017E00000207047F0B583B0019116000500344B1F7880239B003B43984210D084239B00BF
:201800003B43984213D088239B003B4398421FD08C239B003B43984228D0002338E0FEF736
:201820000DFF0123019A13703070012042E0FFF7D5FF002840D00423019A13700378337012
:20184000437873708378B370C378F370012031E0FEF701FF0423019A13703070030A737032
:20186000030CB370000EF070012023E0FEF7F7FE002823D00423019A137003783370437881
:2018800073708378B370C378F370012012E001330B4A92789A420CDD0A49DA00545A3C43E4
:2018A000A542F4D1DB00CA18536832000199984700E0002003B0F0BD0020FBE70020F9E7F7
:2018C000F4030020F80300207047704770B5150000281AD080235B00984219D00223FF3304
:2018E000984218D0F0235B00984217D00023204A52789A420BDD1F4ADC00A25A1C4C247897
:201900001443A0422DD00133F1E7FFF7DEFF70BDFFF7DBFFFBE7FFF7D8FFF8E70529F6D132
:20192000147853781B021C4393781B041C43D3781B061C43FEF78FFEA04208D02A790C4B4A
:201940001B789A42E3D10020FFF7BCFEDFE7084B1C782879FFF7B6FE29792000FFF7B4FF31
:20196000D5E7044ADB00D21853682A009847CEE7F40300207804002010B5FFF754FE10BD92
:2019800010B5FFF761FE10BD10B50C001100002800D010BD1A002000FFF773FEF9E7000038
:2019A00010B5002802D0012806D010BD0D49E4300001FFF79DFEF8E70B49E5300001FFF761
:2019C00097FE0A49E8200001FFF782FE0849EA200001FFF78DFE0749EF200001FFF778FEF7
:2019E000E3E7C046FD190000311A0000511A0000771A00008D1A00000120704770B50D0009
:201A00001400FFF7F9FF002804D001232B702070012070BD04232B70FEF71DFE2070030ABC
:201A20006370030CA370000EE070F1E70020704770B50D001400FFF7F9FF002805D001234F
:201A40002B7000232370012070BD0020FCE7704710B5107853781B02184393781B04184318
:201A6000D3781B06184304320439C9B2FEF7FCFD10BD0120704770B50D001400FEF732FEB3
:201A800001232B702070012070BD704710B5FEF72FFE10BD002243088B4274D303098B42E4
:201AA0005FD3030A8B4244D3030B8B4228D3030C8B420DD3FF22090212BA030C8B4202D3C8
:201AC0001212090265D0030B8B4219D300E0090AC30B8B4201D3CB03C01A5241830B8B42E3
:201AE00001D38B03C01A5241430B8B4201D34B03C01A5241030B8B4201D30B03C01A524143
:201B0000C30A8B4201D3CB02C01A5241830A8B4201D38B02C01A5241430A8B4201D34B02BA
:201B2000C01A5241030A8B4201D30B02C01A5241CDD2C3098B4201D3CB01C01A524183093F
:201B40008B4201D38B01C01A524143098B4201D34B01C01A524103098B4201D30B01C01AB2
:201B60005241C3088B4201D3CB00C01A524183088B4201D38B00C01A524143088B4201D31E
:201B80004B00C01A5241411A00D20146524110467047FFE701B5002000F0F0F802BDC04620
:201BA0000029F7D076E7704703460B437FD4002243088B4274D303098B425FD3030A8B42D1
:201BC00044D3030B8B4228D3030C8B420DD3FF22090212BA030C8B4202D31212090265D04F
:201BE000030B8B4219D300E0090AC30B8B4201D3CB03C01A5241830B8B4201D38B03C01AEA
:201C00005241430B8B4201D34B03C01A5241030B8B4201D30B03C01A5241C30A8B4201D3EF
:201C2000CB02C01A5241830A8B4201D38B02C01A5241430A8B4201D34B02C01A5241030A8D
:201C40008B4201D30B02C01A5241CDD2C3098B4201D3CB01C01A524183098B4201D38B016B
:201C6000C01A524143098B4201D34B01C01A524103098B4201D30B01C01A5241C3088B4293
:201C800001D3CB00C01A524183088B4201D38B00C01A524143088B4201D34B00C01A524170
:201CA000411A00D201465241104670475DE0CA0F00D04942031000D34042534000229C46A0
:201CC00003098B422DD3030A8B4212D3FC22890112BA030A8B420CD3890192118B4208D36A
:201CE000890192118B4204D389013AD0921100E08909C3098B4201D3CB01C01A5241830938
:201D00008B4201D38B01C01A524143098B4201D34B01C01A524103098B4201D30B01C01AF0
:201D20005241C3088B4201D3CB00C01A524183088B4201D38B00C01A5241D9D243088B4285
:201D400001D34B00C01A5241411A00D20146634652415B10104601D34042002B00D54942A5
:201D6000704763465B1000D3404201B5002000F005F802BD0029F8D016E770477047C0465F
:201D800070B50D4B0D4D5E1BB610AB4205D0002408CD01349847A642FAD8FEF795F9084BCE
:201DA000084D5E1BB610AB4205D0002408CD01349847A642FAD870BDD4000000D400000031
:201DC000DC000000D40000007047C0467047C046034B10B5002B02D0024800F005F810BDC5
:201DE00000000000F91D000010B5010000230022002000F015F810BD70B5074C074D641B8D
:201E0000A41005D0013CA300EB589847002CF9D1FEF764F970BDC046EC000000E8000000E8
:201E2000F0B5D6464F4646469846244BC0B5060018689A460F009146FFF7C6FF204B1D6807
:201E4000002D32D053466C6818681F2C30DC002E0CD1631C0234A4006B606751FFF7B6FF7D
:201E60000020E0BCBA46B146A846F0BD49468822A300EB189950C42149008C46AC446146B5
:201E8000873AA240096891461143624611608421424649005A50022EDBD129004A468D3177
:201EA000FF310B6813430B60D3E7064D1D60C9E7FFF78CFF01204042D3E7C0462800002058
:201EC000FC04002000050020700000200000000080000000F000002000000000800000001D
:201EE0000002000002000000F8040020FFFFFFFFFFFFFFFFFFFFFFFFFFFFFFFFFFFFFFFFD6
:201F0000FFFFFFFFFFFFFFFFFFFFFFFFFFFFFFFFFFFFFFFFFFFFFFFFFFFFFFFFFFFFFFFFE1
:201F2000FFFFFFFFFFFFFFFFFFFFFFFFFFFFFFFFFFFFFFFFFFFFFFFFFFFFFFFFFFFFFFFFC1
:201F4000FFFFFFFFFFFFFFFFFFFFFFFFFFFFFFFFFFFFFFFFFFFFFFFFFFFFFFFFFFFFFFFFA1
:201F6000FFFFFFFFFFFFFFFFFFFFFFFFFFFFFFFFFFFFFFFFFFFFFFFFFFFFFFFFFFFFFFFF81
:201F8000FFFFFFFFFFFFFFFFFFFFFFFFFFFFFFFFFFFFFFFFFFFFFFFFFFFFFFFFFFFFFFFF61
:201FA000FFFFFFFFFFFFFFFFFFFFFFFFFFFFFFFFFFFFFFFFFFFFFFFFFFFFFFFFFFFFFFFF41
:201FC000FFFFFFFFFFFFFFFFFFFFFFFFFFFFFFFFFFFFFFFFFFFFFFFFFFFFFFFFFFFFFFFF21
:201FE000FFFFFFFFFFFFFFFFFFFFFFFFFFFFFFFFFFFFFFFFFFFFFFFFFFFFFFFF6CBAFFA533
:04000005000007836D
:00000001FF
